:020000040800F2
:100000000050002021020008270200082B020008EF
:1000100043020008470200085F02000800000000D9
:10002000000000000000000000000000770200084F
:100030007B020008000000007F0200084D09000854
:100040009102000891020008910200089102000844
:100050009102000891020008910200089102000834
:100060009102000891020008910200089102000824
:100070009102000891020008910200089102000814
:100080009102000891020008910200089102000804
:1000900091020008910200089102000891020008F4
:1000A00091020008910200089102000891020008E4
:1000B00091020008910200089102000891020008D4
:1000C00091020008910200089102000891020008C4
:1000D00091020008910200089102000891020008B4
:1000E000910200089102000891020008000000003F
:1000F0000000000000000000000000000000000000
:1001000000000000000000005FF808F100B583B0B7
:1001100000F0DEF8304B314A1360314A1360314B46
:10012000314A32498B4204D21168196004330432D7
:10013000F7E72A4B1A682E4B9A4200D0FEE7284B6D
:100140001A682C4B9A42F9D1234B2B4A13602B4A45
:1001500013602B4B02E000221A600433294A9342B9
:10016000F9D3254B1B6813B9244B1B6803B1FEE779
:1001700000F0BAF8694601A800F0A2F8224C234B1F
:10018000E41AA4100025AC4214DC214C214BE41AE3
:10019000A4100025AC4213DC0099019800F0D8FBB4
:1001A00005461D4C1D4BE41AA410002C0EDC2846FD
:1001B00000F084F8154B53F8253098470135E2E7F5
:1001C000144B53F8253098470135E3E7013C134BB6
:1001D00053F824309847E8E7BABADECA0000002096
:1001E0006C000020000000207C0900087000002046
:1001F000785634123254769870000020780000202F
:10020000700000207C000020BC020008BC02000836
:10021000BC020008BC020008BC020008BC020008C6
:1002200008B5FFF773FF00BEFEE71EF0040F0CBF1A
:10023000EFF30880EFF309807146124A104700BEC1
:10024000FEE700BEFEE71EF0040F0CBFEFF30880D0
:10025000EFF3098071460C4A104700BEFEE71EF01E
:10026000040F0CBFEFF30880EFF309807146074AD3
:10027000104700BEFEE700BEFEE700BEFEE700BE80
:10028000FEE770473F0200085B02000873020008A7
:0402900000BEFEE7C7
:100294007C09000800000020700000207C09000890
:1002A4000000000000000000700000207C0000201E
:0802B400000000000000000042
:1002BC00FEE7000001230360014B0B60704700BF99
:1002CC000400002008B500F073F8024A024B9A6053
:1002DC0008BD00BF0000000800ED00E008B500F00C
:1002EC008FF808BD82B00023019300932C4A136849
:1002FC0043F4803313602A4B1B6803F400330093E0
:10030C00019B01330193009B1BB9019BB3F5A06FBB
:10031C00F1D1234B1B6813F4003F06D0012300934B
:10032C00009B012B04D002B0704700230093F7E729
:10033C001C4B1A6842F010021A601A6822F0030271
:10034C001A601A6842F002021A60A3F580535A68C8
:10035C005A605A685A605A6842F480625A605A6805
:10036C0022F47C125A605A6842F4E8125A601A68F5
:10037C0042F080721A600A4B1B6813F0007FFAD0AF
:10038C00074B5A6822F003025A605A6842F0020284
:10039C005A60034B5B6803F00C03082BF9D1C2E7DE
:1003AC00001002400020024008B5FFF79BFF08BD7B
:1003BC0008B5104B1A6842F001021A6059680E4ACF
:1003CC000A405A601A6822F0847222F480321A6051
:1003DC001A6822F480221A605A6822F4FE025A60CB
:1003EC004FF41F029A60FFF7DFFF044B4FF00062DF
:1003FC009A6008BD001002400000FFF800ED00E01C
:10040C001F4B5B6803F00C03042B15D0082B17D083
:10041C001BB11C4B1C4A1A6002E01A4B1A4A1A6098
:10042C00174B5B68C3F30313184AD35CDAB2154954
:10043C000B68D3400B607047124B134A1A60EFE7FE
:10044C000F4A53685268C3F38343023312F4803F5C
:10045C000AD00B4A526812F4003F0BD00C4A02FB34
:10046C0003F3084A1360DBE7094A02FB03F3054A6E
:10047C001360D5E7044A02FB03F3024A1360CFE78B
:10048C00001002401C00002000127A000C0000201A
:10049C0000093D0010B4012824D018B1022841D025
:1004AC0010BC7047072910D90839CBB2072BF7D8E5
:1004BC009B000F2101FA03F02A4C216821EA00016C
:1004CC0002FA03F30B432360EAE789000F2303FAD4
:1004DC0001F0254C236823EA000302FA01F11943C9
:1004EC002160DDE7072910D90839CBB2072BD7D803
:1004FC009B000F2101FA03F01C4C216821EA00013A
:10050C0002FA03F30B432360CAE789000F2303FAB3
:10051C0001F0174C236823EA000302FA01F1194396
:10052C002160BDE707290FD90839C9B20729B7D807
:10053C008B000F2098400F4C216821EA000002FA32
:10054C0003F101432160ABE789000F2303FA01F0AB
:10055C00094C236823EA000302FA01F119432160D4
:10056C009EE700BF0408014000080140040C014054
:10057C00000C01400410014000100140012818D06B
:10058C0010B1022829D07047012A0AD0002A2FD195
:10059C00012303FA01F11B4A136823EA01031360D8
:1005AC007047012303FA01F1164A13680B431360D9
:1005BC007047012A09D0DAB9012303FA01F1124A72
:1005CC00136823EA010313607047012303FA01F156
:1005DC000D4A13680B4313607047012A09D03AB9CE
:1005EC00012303FA01F1094A136823EA010313609A
:1005FC007047012303FA01F1044A13680B4313609B
:10060C00704700BF0C0801400C0C01400C1001405D
:10061C0008B5012200211046FFF7B0FF0122114658
:10062C001046FFF7ABFF012205211046FFF7A6FF8E
:10063C00012206211046FFF7A1FF012207211046D7
:10064C00FFF79CFF012208211046FFF797FF0122BC
:10065C0009211046FFF792FF01220A211046FFF7ED
:10066C008DFF08BD10B5044600F0010200210846BC
:10067C00FFF784FFC4F3400201210020FFF77EFF47
:10068C00C4F3800202210020FFF778FFC4F3C002FC
:10069C0003210020FFF772FFC4F300120421002095
:1006AC00FFF76CFFC4F3401205210020FFF766FF33
:1006BC00C4F3801206210020FFF760FFE209072136
:1006CC000020FFF75BFF10BD70B504460E460025F9
:1006DC0070E0FFF79DFF2078FFF7C4FF0022114662
:1006EC000120FFF74BFF40F6C41000F00FF9FFF7A5
:1006FC008FFF6078FFF7B6FF002201210846FFF755
:10070C003DFF40F6C41000F001F9FFF781FFA0781F
:10071C00FFF7A8FF002205210120FFF72FFF40F66D
:10072C00C41000F0F3F8FFF773FFE078FFF79AFFBF
:10073C00002206210120FFF721FF40F6C41000F033
:10074C00E5F8FFF765FF2079FFF78CFF0022072102
:10075C000120FFF713FF40F6C41000F0D7F8FFF7A5
:10076C0057FF6079FFF77EFF002208210120FFF779
:10077C0005FF40F6C41000F0C9F8FFF749FFA07957
:10078C00FFF770FF002209210120FFF7F7FE40F66A
:10079C00C41000F0BBF8FFF73BFFE079FFF762FFF6
:1007AC0000220A210120FFF7E9FE40F6C41000F0F8
:1007BC00ADF80135B5428CD370BD08B502220021CD
:1007CC000846FFF767FE022201210020FFF762FEB8
:1007DC00022211460020FFF75DFE022203210020B9
:1007EC00FFF758FE022204210020FFF753FE0222DD
:1007FC0005210020FFF74EFE022206210020FFF704
:10080C0049FE022207210020FFF744FE02220021AC
:10081C000120FFF73FFE022201210846FFF73AFEB6
:10082C00022205210120FFF735FE022206210120BC
:10083C00FFF730FE022207210120FFF72BFE0222D8
:10084C0008210120FFF726FE022209210120FFF7D3
:10085C0021FE02220A210120FFF71CFE08BD000028
:10086C0070B582B005460E4600240FE0E218A95C74
:10087C0002AA1A4402F8081C0133DBB2072BF5D983
:10088C0031466846FFF720FF0134E4B2034B1B7876
:10089C00A34201D90023F1E702B070BD2000002073
:1008AC00034B4FF480321A60043301221A607047F4
:1008BC00001002401F291CD801280BD010B10228AF
:1008CC0010D07047012303FA01F10A4A13680B4355
:1008DC0013607047012303FA01F1074A13680B43B5
:1008EC0013607047012303FA01F1044A13680B43A8
:1008FC0013607047141002401C1002401810024084
:10090C00014B00221A60704710E000E0B0F1807FCC
:10091C0001D20A4B5860094A136843F00103136073
:10092C00064B1B6813F4803FFAD0044B1A6842F054
:10093C0001021A6000225A609A60704710E000E0D1
:10094C007047000008B5FFF7ABFF02210846FFF720
:10095C00B1FF03210220FFF7ADFFFFF7D1FFFFF737
:10096C002CFF05210148FFF77BFFFAE7240000204C
:10097C0078563412740000200000000000000000C3
:10098C0000000000010203040607080900A24A0443
:10099C0040FFFFFF007E10107E007E525242007E10
:1009AC00404040007E404040003C4242423C00B04F
:1009BC007000003E40403840403E003C4242423CC9
:1009CC00007C1212126C007E404040007E4242427B
:1009DC00241800BE000000000000FFFF325476987F
:040000050800010DE1
:00000001FF
